:0C100500C295C29489A0D2947F057E00A1
:10101100D3EF9400EE9400400F7DC77C01DCFEDD30
:09102100FAEF1F70EB1E80E822BB
:10102A00E4FBC296D295D2947F01FE121011E5A07C
:10103A0030E70C0BEBD3946440F4C2947F0022C2D5
:04104A00947F01226C
:10104E00A907E4FA12102AEF700E7F01FE1210119A
:10105E000AEAD3946440ED22C296121005C294227D
:10106E00A907E4FA12102AEF700E7F01FE1210117A
:10107E000AEAD3946440ED22D296121005C294224D
:10113400D292D2907F3012104E7F0C12104E7F014B
:0311440002104E48
:10108E00EF70047F808013BF01047F90800CBF023D
:10109E00047F888005BF03027F98EF2DFF02104E5C
:1010CD00D3EF9400EE940040147D6E7C00ED1D7006
:0E10DD00011CED4C70F7EF1F70E61E80E32241
:100FDE00C2977B46AF031BEF70FAD297E4FB3097B4
:100FEE00130BEBD3940540037F00227F017E00128A
:070FFE0010CD80EA7F012203
:0C0E9700120FDE7F017E001210CD7FCC18
:100EA300E4FBFAC297050AE50A70020509EF1392FB
:100EB30097750900750A06E50A150AAC097002154B
:100EC300094C70F3D297EFC313FF0BBB00010AEB7E
:060ED30064084A70CE2203
:100ED9007D087C00C2970FBF0000D2970FBF0000AA
:100EE9000FBF0000A297E433C43333335480FBE9C6
:100EF900C3134BF97E007F04EF1FAA0670011E4A37
:0E0F090070F6ED1D70011CED4C70C9AF012299
:0F114700120E977F44120EA37F647E000210CD1C
:08117100120E977FBE020EA3CF
:10110700E4FFFE121147121171120ED98F08120E49
:07111700D9EFFEE508FF22FD
:09111E00121127121127121127EA
:0D1127007F017ED87D23DDFEDEFCDFFA2295
:0911560012115F12115F12115F0A
:06115F00007F19DFFE22F3
:100FB400E4FBD2B70000C2B7121127D2B712115600
:100FC40012115F20B703FC80027CFF20B709EBC33A
:0A0FD40094FA50030B80F4AF0422DE
:040F4F00EF120BC5CD
:100F5300E4FCEE25E0FEE4FD20B709EDC394FA506E
:100F6300030D80F412115630B711430601E4FD302E
:100F7300B709EDC394FA50030D80F40CBC08D3AF4A
:020F8300062244
:100F8500120F53EF120BB3120F53900001120F4FB4
:100F9500900002120F4F900003120F4F900004EFC4
:0F0FA500120BC512111E12112712111E02112755
:100F1700CEC2B6C8A3BA2020202020202020A1E6D8
:100F270000CAAAB6C83A202020202020202020521C
:100F37004800434F3220C5A8B6C8A3BA2020207066
:080F4700706D000000000000C5
:100DE800E4F51BF51AF519120E41E51B7006C2B69B
:100DF800C2B5C2B4E51BB44C02D2B5E51BB4480277
:100E0800D2B6E51BB44D02D2B4E51BB46C02C2B530
:100E1800E51BB46802C2B6E51BB46D02C2B4E5199D
:100E280060C8C2AFC28EC28C121107120C80120D9C
:090E380085E4F5191210AE80B139
:1010AE00759850758921758C4C758AD0758DFD7526
:0F10BE008BFDD28ED28CD2A9D2ABD2ACD2AF22C4
:100E4100E4F5081210AEF590F5B0121134E4FDFF8F
:100E510012108EE508900F1793FF600712106E05B0
:100E61000880F0E4F508FD7F0112108EE508900F6F
:100E71002893FF600712106E050880F0E4F508FD65
:100E81007F0212108EE508900F3993FF6007121050
:060E91006E050880F0224E
:100C80008E088F09780B7C007D007BFF7A0F794AF4
:100C90007E007F05120B8DC3E50864809480501C94
:100CA0007D03E4FF12108E7F2D12106EE5091509E9
:100CB000700215086309FF6308FF800C7D03E4FFE1
:100CC00012108E7F2B12106EAC08AD09EC120A03C5
:100CD0008F138E128D118C10E4FFFE7DC87C40AB0B
:100CE00013AA12A911A8101208F8E4FBFAF9783F28
:100CF000120807120A3C8E088F09AE08AF097C273C
:100D00007D10120BE78F0BAE08AF097C277D101208
:100D10000BE77E037FE8CFCDCFCECCCE120BE78F93
:100D20000CAE08AF097C037DE8120BE77E007F6400
:100D3000CFCDCFCECCCE120BE78F0DAE08AF097C56
:100D4000007D64120BE77E007F0ACFCDCFCECCCEE4
:100D5000120BE78F0EAE08AF097C007D0A120BE77D
:100D60008D0FE4F50AE50AB403057F2E12106E74A8
:100D70000B250AF8E62430FF12106E050AE50AC3B7
:050D8000940540E12292
:100D8500E4F508120FB4EF7059F50830B70BE50814
:100D9500C394FA5004050880F27B007A0079141296
:100DA5000F857D037F0112108EE51475F00A8424EA
:100DB50058FF12106EE51475F00A84E5F02458FF0B
:100DC50012106E7F2E12106EE51575F00A842458E8
:100DD500FF12106EE51575F00A84E5F02458FF1230
:030DE500106E226B
:030023000211794E
:0611790085991BC29832AB
:03000B000210EBF5
:1010EB00C0E0C0D0758C4C758AD0051AE51AB428AF
:0C10FB0006751A00751901D0D0D0E03243
:10080000020AA8E86480F8E933E83360110460F074
:10081000ED33EC337009E8FCE9FDEAFEEBFF22045E
:1008200060DED3EB9FEA9EE99DE8C2E78CF0C2F759
:1008300095F0400CE8CCF8E9CDF9EACEFAEBCFFB25
:10084000120A7385D0F05804700320D5B3E8047001
:10085000075002B2D5020AB292D5EC0460F7E4CC9C
:10086000C0E0C398F8603B94186008400DD0E0FBEE
:10087000020A8AE4FBFAC9FC8028E830E406E4C9ED
:10088000FBE4CAFCE830E305E4C9CACBFCE8540742
:100890006010F8C3E913F9EA13FAEB13FBEC13FC4D
:1008A000D8F130F52FC3E49CFCEF9BFFEE9AFEEDF0
:1008B00099FDD0E0FBEF4E4D4C701222DB03020A93
:1008C000AFEC2CFCEF33FFEE33FEED33FDED30E704
:1008D000EB020A8AEF2BFFEE3AFEED39FDD0E0FB8A
:1008E00050130BBB0003020AB2ED13FDEE13FEEF33
:0808F00013FFEC13FC020A8A5D
:1008F800EC4D6011E8497017ED33EC3304600DE4FA
:10090800FCFFFEFD22E933E8330470F8020AA8125E
:100918000A7358046009E4CC24815006285009025F
:100928000AB2284003020AAFC0E0EB4A7044B9801B
:1009380006D0E0FB020A9EEF4E701CBD8008EBFF5C
:10094800EAFEE9FD80EBE98DF0A4FEE5F00209E19D
:10095800E9CDF9EAFEEBFFEF89F0A4FCE5F0CE89DA
:10096800F0A42EFFE435F0CD89F0A42DFEE435F097
:100978008067EF4E7005BD80D780C3EF8BF0A4ACC5
:10098800F0EE8BF0A42CFCE435F0F8EF8AF0A42C00
:10099800E5F038FCE433CB8DF0A42CFCE5F03BF813
:1009A800EE8AF0A42CFCE5F038F8E433CF89F0A403
:1009B8002CFCE5F038CF3400CE89F0A42FFFE5F009
:1009C8003EFEE433C98DF0A42EFEE5F039CD8AF061
:1009D800A42FFFE5F03EFEE43DFD33D0E0FB5007D9
:1009E8000BBB000F020AB2EC2CFCEF33FFEE33FE18
:0609F800ED33FD020A8A46
:1009FE0075F020800E75F010800575F0087D007E74
:100A0E00007F003392D530D503120C1DEC3340100D
:100A1E00EF33FFEE33FEED33FDEC33FCD5F0ED227C
:0E0A2E00E5F0247EA2D513CC92E7CDCEFF22B8
:100A3C00EDD2E7CD33EC3392D524814006E4FFFEB2
:100A4C00FDFC22FCE4CFCECDCC24E0501174FF8011
:100A5C00EDC3CC13CCCD13CDCE13CECF13CF0470AE
:070A6C00F030D5DE020C1D85
:100A7300E9D2E7C933E833F892D5EDD2E7CD33ECC9
:070A830033FC5002B2D52242
:100A8A00EC30E7100FBF000C0EBE00080DBD0004CD
:100A9A000BEB6014A2D5EB13FCED92E7FD2274FF79
:100AAA00FCFDFEFF22E480F8A2D574FF13FC7D80D2
:030ABA00E480EFE6
:0300000002116585
:0C116500787FE4F6D8FD75811B020DE8D0
:100ABD00E709F608DFFA8046E709F208DFFA803E1B
:100ACD0088828C83E709F0A3DFFA8032E309F60808
:100ADD00DFFA8078E309F208DFFA807088828C8370
:100AED00E309F0A3DFFA806489828A83E0A3F60824
:100AFD00DFFA805889828A83E0A3F208DFFA804CFE
:100B0D0080D280FA80C680D4806980F280338010D4
:100B1D0080A680EA809A80A880DA80E280CA80333D
:100B2D0089828A83ECFAE493A3C8C582C8CCC583B5
:100B3D00CCF0A3C8C582C8CCC583CCDFE9DEE78085
:100B4D000D89828A83E493A3F608DFF9ECFAA9F004
:100B5D00EDFB2289828A83ECFAE0A3C8C582C8CC5A
:100B6D00C583CCF0A3C8C582C8CCC583CCDFEADE73
:100B7D00E880DB89828A83E493A3F208DFF980CCD5
:100B8D0088F0EF60010E4E60C388F0ED2402B404CE
:100B9D000050B9F582EB2402B4040050AF23234575
:060BAD008223900B0D7382
:100BB300BB010689828A83F0225002F722BBFE0121
:020BC300F3221B
:100BC500F8BB010DE58229F582E5833AF583E8F066
:100BD500225006E92582C8F622BBFE05E92582C812
:020BE500F222FA
:100BE700C2D5EC30E709B2D5E4C39DFDE49CFCEE29
:100BF70030E715B2D5E4C39FFFE49EFE120C2BC36A
:100C0700E49DFDE49CFC8003120C2B30D507C3E464
:060C17009FFFE49EFE2297
:0E0C1D00C3E49FFFE49EFEE49DFDE49CFC22E8
:100C2B00BC000BBE0029EF8DF084FFADF022E4CCAD
:100C3B00F875F008EF2FFFEE33FEEC33FCEE9DEC76
:100C4B00984005FCEE9DFE0FD5F0E9E4CEFD22EDBC
:100C5B00F8F5F0EE8420D21CFEADF075F008EF2F06
:100C6B00FFED33FD4007985006D5F0F222C398FDF7
:050C7B000FD5F0EA2294
:00000001FF
